{
  "_format": "hh-sol-artifact-1",
  "contractName": "ChainPay",
  "sourceName": "contracts/ChainPay.sol",
  "abi": [
    {
      "anonymous": false,
      "inputs": [
        {
          "indexed": true,
          "internalType": "address",
          "name": "from",
          "type": "address"
        },
        {
          "indexed": false,
          "internalType": "address",
          "name": "to",
          "type": "address"
        },
        {
          "indexed": false,
          "internalType": "uint256",
          "name": "ammount",
          "type": "uint256"
        },
        {
          "indexed": false,
          "internalType": "string",
          "name": "symbol",
          "type": "string"
        }
      ],
      "name": "transactions",
      "type": "event"
    },
    {
      "inputs": [
        {
          "internalType": "address payable",
          "name": "_to",
          "type": "address"
        },
        {
          "internalType": "string",
          "name": "symbol",
          "type": "string"
        }
      ],
      "name": "_transfer",
      "outputs": [],
      "stateMutability": "payable",
      "type": "function"
    }
  ],
  "bytecode": "0x608060405234801561001057600080fd5b506101c9806100206000396000f3fe60806040526004361061001e5760003560e01c80631b7b034514610023575b600080fd5b6100366100313660046100ba565b610038565b005b6040516001600160a01b038416903480156108fc02916000818181858888f1935050505015801561006d573d6000803e3d6000fd5b50336001600160a01b03167f76db3b1e0c138414c92d766944017ceb4aa5916020f18076b217087b242533a9843485856040516100ad949392919061014b565b60405180910390a2505050565b6000806000604084860312156100cf57600080fd5b83356001600160a01b03811681146100e657600080fd5b9250602084013567ffffffffffffffff8082111561010357600080fd5b818601915086601f83011261011757600080fd5b81358181111561012657600080fd5b87602082850101111561013857600080fd5b6020830194508093505050509250925092565b6001600160a01b0385168152602081018490526060604082018190528101829052818360808301376000818301608090810191909152601f909201601f19160101939250505056fea26469706673582212208203e50a8923f0701626ffb3b6836490dd0ea32295834b8f4b61e89fbd1b4aaa64736f6c63430008180033",
  "linkReferences": {},
  "deployedLinkReferences": {}
}